:020000040800F2
:1000000000800120E5340008393400083B34000842
:100010003D3400083F34000841340008000000006F
:100020000000000000000000000000004334000851
:100030004534000800000000473400084934000837
:1000400035350008353500083535000835350008E8
:1000500035350008353500083535000835350008D8
:1000600035350008353500083535000835350008C8
:1000700035350008353500083535000835350008B8
:1000800035350008353500083535000835350008A8
:100090003535000835350008353500083535000898
:1000A0003535000835350008353500083535000888
:1000B0003535000835350008353500083535000878
:1000C0003535000835350008353500083535000868
:1000D0003535000835350008353500083535000858
:1000E0003535000835350008353500083535000848
:1000F0003535000835350008353500083535000838
:100100003535000835350008353500083535000827
:100110003535000835350008353500083535000817
:100120003535000835350008353500083535000807
:1001300035350008353500083535000835350008F7
:1001400035350008353500083535000835350008E7
:1001500035350008353500083535000835350008D7
:1001600035350008353500083535000835350008C7
:100170003535000835350008353500080000000029
:08018000353500083535000893
:1001900001F0FF01102A2BDB10F0070F08D010F838
:1001A000013B013A8B422DD010F0070F42B3F6D13C
:1001B000F0B441EA012141EA014122F007047FF055
:1001C00000070023F0E80256083C85EA010586EAAC
:1001D000010685FA47F5A3FA87F586FA47F6A5FAE8
:1001E00087F68EB9EED1F0BC01F0FF0102F00702F4
:1001F00032B110F8013B013A83EA010313B1F8D19F
:100200000020704701387047002D06BF354603387F
:10021000073815F0010F07D1013015F4807F02BFB8
:10022000013015F4C03F0130F0BC0138704700BF09
:1002300070B54FF0FF0C4CF4E06C1CEA11541DBF7C
:100240001CEA135594EA0C0F95EA0C0F00F0DEF847
:100250002C4481EA030621EA4C5123EA4C5350EA2C
:10026000013518BF52EA033541F4801143F480137D
:1002700038D0A0FB02CE4FF00005E1FB02E506F00E
:100280000042E0FB03E54FF00006E1FB03569CF063
:10029000000F18BF4EF0010EA4F1FF04B6F5007F69
:1002A00064F5407404D25FEA4E0E6D4146EB0606DB
:1002B00042EAC62141EA55514FEAC52040EA5E5064
:1002C0004FEACE2EB4F1FD0C88BFBCF5E06F1ED80E
:1002D000BEF1004F08BF5FEA500E50F1000041EB45
:1002E000045170BD06F0004646EA010140EA0200F2
:1002F00081EA0301B4EB5C04C2BFD4EB0C0541EA14
:10030000045170BD41F480114FF0000E013C00F328
:10031000AB8014F1360FDEBF002001F0004170BD4C
:10032000C4F10004203C35DA0C341BDC04F1140465
:10033000C4F1200500FA05F320FA04F001FA05F2F1
:1003400040EA020001F0004221F0004110EBD370BE
:1003500021FA04F642EB06015EEA430E08BF20EAEA
:10036000D37070BDC4F10C04C4F1200500FA04F38D
:1003700020FA05F001FA04F240EA020001F000411F
:1003800010EBD37041F100015EEA430E08BF20EA92
:10039000D37070BDC4F1200500FA05F24EEA020EDA
:1003A00020FA04F301FA05F243EA020321FA04F009
:1003B00001F0004121FA04F220EA020000EBD370C0
:1003C0005EEA430E08BF20EAD37070BD94F0000FC0
:1003D0000FD101F00046400041EB010111F4801FF4
:1003E00008BF013CF7D041EA060195F0000F18BFA5
:1003F000704703F00046520043EB030313F4801FE1
:1004000008BF013DF7D043EA0603704794EA0C0F9A
:100410000CEA135518BF95EA0C0F0CD050EA4106B0
:1004200018BF52EA4306D1D181EA030101F000412D
:100430004FF0000070BD50EA410606BF1046194655
:1004400052EA430619D094EA0C0F02D150EA013661
:1004500013D195EA0C0F05D152EA03361CBF1046A2
:1004600019460AD181EA030101F0004141F0FE4141
:1004700041F470014FF0000070BD41F0FE4141F4C5
:10048000780170BD81F0004102E000BF83F00043BD
:1004900030B54FEA41044FEA430594EA050F08BF1F
:1004A00090EA020F1FBF54EA000C55EA020C7FEAE3
:1004B000645C7FEA655C00F0E2804FEA5454D4EB60
:1004C0005555B8BF6D420CDD2C4480EA020281EA2A
:1004D000030382EA000083EA010180EA020281EA62
:1004E0000303362D88BF30BD11F0004F4FEA0131B4
:1004F0004FF4801C4CEA113102D0404261EB4101C3
:1005000013F0004F4FEA03334CEA133302D0524248
:1005100063EB430394EA050F00F0A780A4F1010404
:10052000D5F1200E0DDB02FA0EFC22FA05F280183E
:1005300041F1000103FA0EF2801843FA05F3594124
:100540000EE0A5F120050EF1200E012A03FA0EFCA3
:1005500028BF4CF0020C43FA05F3C01851EBE371CD
:1005600001F0004507D54FF0000EDCF1000C7EEBEA
:1005700000006EEB0101B1F5801F1BD3B1F5001F28
:100580000CD349085FEA30004FEA3C0C04F1010447
:100590004FEA445212F5800F80F09A80BCF1004F70
:1005A00008BF5FEA500C50F1000041EB045141EAF2
:1005B000050130BD5FEA4C0C404141EB0101013CBB
:1005C00028BFB1F5801FE9D291F0000F04BF0146AA
:1005D0000020B1FA81F308BF2033A3F10B03B3F17C
:1005E00020020CDA0C3208DD02F1140CC2F10C020C
:1005F00001FA0CF021FA02F10CE002F11402D8BF6A
:10060000C2F1200C01FA02F120FA0CFCDCBF41EA35
:100610000C019040E41AA2BF01EB0451294330BD04
:100620006FEA04041F3C1CDA0C340EDC04F11404E1
:10063000C4F1200220FA04F001FA02F340EA0300B8
:1006400021FA04F345EA030130BDC4F10C04C4F1FE
:10065000200220FA02F001FA04F340EA03002946DE
:1006600030BD21FA04F0294630BD94F0000F83F428
:10067000801306BF81F480110134013D4EE77FEA0B
:10068000645C18BF7FEA655C29D094EA050F08BF57
:1006900090EA020F05D054EA000C04BF1946104638
:1006A00030BD91EA030F1EBF0021002030BD5FEA7C
:1006B000545C05D14000494128BF41F0004130BDA4
:1006C00014F580043CBF01F5801130BD01F00045F8
:1006D00045F0FE4141F470014FF0000030BD7FEA6B
:1006E000645C1ABF194610467FEA655C1CBF0B4666
:1006F000024650EA013406BF52EA033591EA030F7D
:1007000041F4002130BD00BF90F0000F04BF002174
:10071000704730B54FF4806404F132044FF00005A7
:100720004FF0000150E700BF90F0000F04BF002120
:10073000704730B54FF4806404F1320410F0004586
:1007400048BF40424FF000013EE700BF42004FEA81
:10075000E2014FEA31014FEA02701FBF12F07F43FE
:1007600093F07F4F81F06051704732F07F4208BFB5
:10077000704793F07F4F04BF41F40021704730B5BC
:100780004FF4607401F0004521F000411CE700BF08
:1007900050EA010208BF704730B54FF000050AE08B
:1007A00050EA010208BF704730B511F0004502D58C
:1007B000404261EB41014FF4806404F132045FEA8E
:1007C000915C3FF4D8AE4FF003025FEADC0C18BF37
:1007D00003325FEADC0C18BF033202EBDC02C2F129
:1007E000200300FA03FC20FA02F001FA03FE40EABB
:1007F0000E0021FA02F11444BDE600BF4FEA4102A7
:10080000B2F1E04324BFB3F5001CDCF1FE5C0DD96E
:1008100001F0004C4FEAC0024CEA5070B2F1004FB8
:1008200040EB830008BF20F00100704711F0804FBB
:1008300021D113F13872BCBF01F00040704741F480
:1008400080114FEA5252C2F11802C2F1200C10FA84
:100850000CF320FA02F018BF40F001004FEAC12368
:100860004FEAD32303FA0CFC40EA0C0023FA02F30C
:100870004FEA4303CCE77FEA625307D150EA0133E2
:100880001EBF4FF0FE4040F44000704701F00040B2
:1008900040F0FE4040F40000704700BF53B94AB931
:1008A000002908BF00281CBF4FF0FF314FF0FF3078
:1008B00000F00CB8ADF1080C6DE904CE03F00CFFAC
:1008C000DDF804E0DDE9022304B07047704700BFA3
:1008D00010B5054C237833B9044B13B10448AFF37A
:1008E00000800123237010BD700000200000000074
:1008F000D049000808B5034B1BB103490348AFF3C7
:10090000008008BD0000000074000020D0490008ED
:100910002DE9F04186B0044600238DF817304FF4DE
:100920007A730293012301930DF11602009275224E
:10093000D02101F03BF89DF81630682B02D006B0AC
:10094000BDE8F0814FF47A770297012501950DF10A
:10095000170600962B466B22D021204600F053FF4D
:1009600007238DF817300297019500962B46192220
:10097000D021204600F047FF4FF000088DF8178087
:100980000297019500962B461C22D021204600F0AC
:100990003AFF8DF817800297019500962B461B228F
:1009A000D021204600F02FFFC9E700002DE9F043D9
:1009B00087B006460D4614464FF47A79CDF8089074
:1009C0004FF00608CDF8048004AF009701233B22C6
:1009D000D02100F0EBFF9DF810209DF8113043EA84
:1009E00002231BB207EE903AF8EEE76AC5ED006A03
:1009F0009DF812209DF8133043EA02231BB207EE44
:100A0000903AB8EEE77A85ED017A9DF814209DF8CA
:100A1000153043EA02231BB207EE903AF8EEE77A6C
:100A2000C5ED027A9FED286A66EE866AC5ED006A1A
:100A300027EE067A85ED017A67EE867AC5ED027AB1
:100A4000CDF80890CDF80480009701234322D021EF
:100A5000304600F0ABFF9DF810209DF8113043EABE
:100A600002231BB207EE903AF8EEE76AC4ED006A83
:100A70009DF812209DF8133043EA02231BB207EEC3
:100A8000903AB8EEE77A84ED017A9DF814209DF84B
:100A9000153043EA02231BB207EE903AF8EEE77AEC
:100AA000C4ED027A9FED096AC6EE865AC4ED005A7B
:100AB000C7EE066AC4ED016A87EE867A84ED027A93
:100AC00007B0BDE8F08300BF00008038000003439A
:100AD00030B52DED048B85B0B0EE409AB0EE608A53
:100AE00005460C468DED010ACDED020A8DED031A87
:100AF00020EE000A61EE018A30EE280A03F046FC7F
:100B0000F0EE400AB0EE480A03F03EFC10EE100A88
:100B1000FFF71CFE12A3D3E90023FFF789FBFFF7C1
:100B20006DFE286028EE088A38EE880A03F02EFC55
:100B3000F0EE400AB1EE490A03F026FC10EE100A6E
:100B4000FFF704FE06A3D3E90023FFF771FBFFF7CD
:100B500055FE206005B0BDEC048B30BDAFF30080C6
:100B6000F8C1631ADCA54C4084B08DED010ACDEDCF
:100B7000020A8DED031AC0ED000A81ED000A04B0EF
:100B80007047000000B500230360436083604FF0AE
:100B90007E5CC0F80CC003614361C0F818C09FEDD3
:100BA000167A80ED077ADFED157AC0ED087ADFF866
:100BB00050E0C0F824E00B604B608B60C1F80CC0C3
:100BC0000B614B61C1F818C081ED077AC1ED087A5D
:100BD000C1F824E0136053609360C2F80CC0136145
:100BE0005361C2F818C082ED077AC2ED087AC2F8E4
:100BF00024E05DF804FB00BF6F12833AA69B443BE0
:100C00008FC2F53CD0ED014A70EEE40AC0ED020A55
:100C100090ED005A60EE810A35EE205A80ED005AC0
:100C2000D0ED037A90ED066A26EE014A90ED047A43
:100C300074EE475AD0ED056A75EEE65AD0ED073AE4
:100C400075EEA35A65EE815A77EEA57AC0ED037A68
:100C500037EE447A80ED047A76EEC46AC0ED056A18
:100C6000D0ED085A65EE815A36EE256A80ED066AA7
:100C700030EE450A90ED094A37EE844AC7EE845AB1
:100C8000C6EE843A20EE254A35EE045A80ED005A2D
:100C900020EE230A74EE804AC0ED014A27EEA55AE1
:100CA00037EEC55A80ED035A67EE255A77EE655A3E
:100CB000C0ED045A67EEA37A76EEE76AC0ED056AE6
:100CC00027EE237A36EE476A80ED066A70474FF0CA
:100CD0006043D3F8803E13F0010F11D04FF0604312
:100CE000D3F8003E13F0010F01D1704700BF4FF061
:100CF00060431B68002BF9D0C3B24FF06042137001
:100D00007047000030B58BB005AD00240594069403
:100D1000079408940994214BDA6C42F00402DA64D7
:100D2000DA6C02F004020192019ADA6C42F080025D
:100D3000DA64DA6C02F080020292029ADA6C42F013
:100D40000102DA64DA6C02F001020392039ADA6CAF
:100D500042F00202DA64DB6C03F002030493049BAA
:100D6000224620214FF0904000F014FB4FF4005336
:100D700005934FF40413069307942946084800F09E
:100D800009FA202305930123069307940894294622
:100D90004FF0904000F0FEF90BB030BD0010024063
:100DA0000008004870B50C461646002504E014F80B
:100DB000010BFFF78CFF0135B542F8DB304670BD03
:100DC00072B6FEE708B50B480B4B03604FF4E133F6
:100DD000436000238360C36003610C22426183612E
:100DE000C3610362436202F0F6FA00B908BDFFF77F
:100DF000E7FF00BF2C0100200044004008B5114867
:100E0000114B0360114B4360002383600122C260D9
:100E1000036143618361C361036200F090FC50B9D8
:100E20000021084800F098FE38B90021054800F07C
:100E3000C0FE20B908BDFFF7C3FFFFF7C1FFFFF7F2
:100E4000BFFF00BFB401002000540040E49CD1105B
:100E500000B597B04422002105A802F043FC00230E
:100E6000009301930293039304934FF4007000F0F6
:100E700075FF20BB022305934FF480720892102265
:100E800009920F931093012211920A2212920722C3
:100E900013921493159305A801F044F888B90F2311
:100EA00000930323019300230293039304930421EB
:100EB000684601F045FB30B917B05DF804FBFFF759
:100EC0007FFFFFF77DFFFFF77BFF000080B586B057
:100ED00000F0BAF83B48FFF71BFD3B4A3B493C4852
:100EE000FFF750FEFFF7B4FFFFF70CFFFFF76AFFB5
:100EF000FFF784FF4FF09042536983F02003536162
:100F0000344C354D224629462E48FFF74FFD334FCE
:100F1000334E3946304695ED000AD5ED010A95ED80
:100F2000021AFFF7D5FDDFF8C880DFF8C890414608
:100F3000484694ED000AD4ED010A94ED021AFFF739
:100F400013FE284C224D94ED001AD9ED000A96EDBF
:100F5000000A2846FFF756FE1C4E94ED001AD8ED05
:100F6000000A97ED000A3046FFF74CFED6F80080E5
:100F7000D5F80890D6F808A02868FFF7E7FB0646E2
:100F80000F465046FFF7E2FBCDE904014846FFF764
:100F9000DDFBCDE902014046FFF7D8FBCDE90001BA
:100FA00032463B46104802F08BFBD4ED007A9FEDB1
:100FB0000F7A67EE877AFCEEE77A17EE900A00F078
:100FC0006BF897E7B40100209C000020C4000020CB
:100FD000EC000020140100202001002094000020DB
:100FE0009800002000000020E849000800007A4432
:100FF0008C00002090000020104B1B780BB90120C2
:10100000704710B504464FF47A70B0FBF3F30C4A06
:101010001068B0FBF3F000F0A9F868B90F2C01D903
:1010200001200AE0002221464FF0FF3000F08EF848
:10103000044B1C60002000E0012010BD04000020D3
:101040000C0000200800002010B5094A136843F482
:1010500080731360032000F067F80020FFF7CCFFD7
:1010600010B10124204610BD044600F0CDFDF9E783
:1010700000200240034B1B78034A11680B441360A5
:10108000704700BF0400002008020020014B1868D0
:10109000704700BF0802002038B50446FFF7F6FF8E
:1010A0000546B4F1FF3F02D0044B1B781C44FFF708
:1010B000EDFF401BA042FAD338BD00BF0400002062
:1010C000002808DB0901C9B200F1604000F5614069
:1010D00080F80013704700F00F000901C9B2014BFE
:1010E0001954704714ED00E000B500F00700C0F19E
:1010F000070CBCF1040F28BF4FF0040C031D062B96
:101100000FD9C31E4FF0FF3E0EFA0CF021EA00018A
:1011100099400EFA03FE22EA0E0241EA02005DF84F
:1011200004FB0023EEE70000074AD36823F4E063E2
:101130001B041B0C000200F4E060034343F0BF6398
:1011400043F40033D360704700ED00E010B504466F
:10115000054BD868C0F30220FFF7C6FF01462046C2
:10116000FFF7AEFF10BD00BF00ED00E00138B0F1A9
:10117000807F0BD24FF0E0235861054AF02182F8BE
:1011800023100020986107221A61704701207047E0
:1011900000ED00E0F0B583B000236BE085685E00F1
:1011A0000324B44025EA0405CC68B4402C43846091
:1011B000456825EA0C054C68C4F300149C402C4398
:1011C000446069E0C56A25EA0C05C4F3C0049C408C
:1011D0002C43C46266E0DD08083550F8254003F072
:1011E000070C4FEA8C0C4FF00F0E0EFA0CFE24EA9F
:1011F0000E0E0C6904FA0CF444EA0E0440F8254083
:1012000067E0062400E0002404FA0EF42C430CF1FD
:10121000020C5C4D45F82C405B4CA568D44325EA94
:1012200002064F6817F4801F01D042EA0506564DAA
:10123000AE60ED6804EA05064F6817F4001F01D0A0
:1012400042EA0506504DEE606D6804EA05064F68F7
:1012500017F4003F01D042EA05064B4D6E602D6841
:101260002C404E6816F4803F01D042EA0504464AFD
:10127000146001330A6832FA03F400F081804FF001
:10128000010C0CFA03FC1CEA0202F2D04C6804F0D8
:101290000304013C012C81D94C6804F0030EBEF11B
:1012A000030F8FD04C6804F00304032C0CD0C468E7
:1012B0005D004FF0030C0CFA05FC24EA0C0C8C6862
:1012C000AC4044EA0C04C4604C6804F00304022CF3
:1012D00081D004684FEA430E4FF0030C0CFA0EFC69
:1012E00024EA0C0C4C6804F0030404FA0EF444EAFB
:1012F0000C0404604C6814F4403FBAD0234C256EB3
:1013000045F001052566246E04F001040194019C5A
:101310004FEA930C0CF102051A4C54F8255003F0D7
:10132000030E4FEA8E0E0F2404FA0EF425EA04058C
:10133000B0F1904F3FF467AF154CA04216D004F5C2
:101340008064A04214D004F58064A04212D004F559
:101350008064A04210D004F58064A0420ED004F551
:101360008064A0423FF44DAF07244DE701244BE7D2
:10137000022449E7032447E7042445E7052443E71B
:1013800003B0F0BD00000140000401400010024025
:10139000000400480AB181617047816270470368A8
:1013A0009A6912F0020F01D000229A6203689A69CA
:1013B00012F0010F03D19A6942F001029A6170475D
:1013C00010B4019CC1F3090141EA024119432143D0
:1013D00021F0004102685368640D04F4806444F015
:1013E0007F7444F4583444F47F7444F0030423EAD3
:1013F00004030B4353605DF8044B70472DE9F04143
:10140000044603689E6916F010067CD00D4690468F
:101410001022DA61002637462368986910F0200F01
:1014200030D17FBBB5F1FF3FF6D0FFF72FFEA0EB29
:101430000800A84201D8002DEED121684B6803F4C2
:10144000804394F84220D2B2886910F4004F02D051
:101450000BB9202A0ED123689B6913F0200FDBD132
:10146000FFF714FEA0EB08001928F4D946F0200677
:101470000127D1E74B6843F480434B60FFF706FE3A
:101480008046E8E70FB92022DA6146F0040601251C
:101490002268936913F4807F05D046F001064FF46B
:1014A0008071D161012513F4806F06D046F00806E3
:1014B00022684FF48061D161012513F4007F24D0AC
:1014C00046F0020623684FF40072DA6101252046D7
:1014D000FFF765FF2268536823F0FF7323F48B3313
:1014E00023F4FF7323F001035360636C334363649D
:1014F000202384F84130002384F8423084F84030BF
:101500002846BDE8F0810025C2E7002DF8D0DEE7CF
:1015100070B504460D46164623689B6913F0020F0A
:1015200022D1324629462046FFF768FFF0B9B5F1CF
:10153000FF3FF1D0FFF7AAFD801BA84201D8002D84
:10154000EAD123689B6913F0020FE5D1636C43F085
:1015500020036364202384F84130002384F8423060
:1015600084F84030012000E0002070BD0120FCE73D
:101570002DE9F8430546884617461E46DDF82090BB
:101580002B689C6938EA04040CBF01230023BB428A
:1015900027D14A4631462846FFF730FF20BBB6F137
:1015A000FF3FEDD0FFF772FDA0EB0900B04201D87C
:1015B000002EE5D12B689B6938EA03030CBF012399
:1015C0000023BB42DCD16B6C43F020036B6420230F
:1015D00085F84130002385F8423085F840300120FD
:1015E00000E00020BDE8F8830120FBE72DE9F04191
:1015F00082B0044690461D46089E099F194B0093F1
:101600004FF08073EAB2FFF7DBFE3A4631462046E0
:10161000FFF77EFFF8B9012D0ED123685FFA88F23B
:101620009A6200973346002280212046FFF7A0FFF0
:10163000A8B902B0BDE8F08123684FEA18229A6287
:101640003A4631462046FFF763FF30B923685FFA18
:1016500088F29A62E5E70120EBE70120E9E7012043
:10166000E7E700BF002000802DE9F04182B004468A
:1016700090461D46089E099F184B00930023EAB22E
:10168000FFF79EFE3A4631462046FFF741FFF8B984
:10169000012D0ED123685FFA88F29A6200973346D3
:1016A000002240212046FFF763FFA8B902B0BDE841
:1016B000F08123684FEA18229A623A463146204662
:1016C000FFF726FF30B923685FFA88F29A62E5E7F0
:1016D0000120EBE70120E9E70120E7E70020008097
:1016E00070B504460D46164604E023689B6913F066
:1016F000200F12D023689B6913F0200F1BD13246B4
:1017000029462046FFF77AFEB8B9FFF7BFFC801BD9
:10171000A842EAD8002DEDD1E7E7636C43F020033F
:101720006364202384F84130002384F8423084F835
:101730004030012000E0002070BD0120FCE70028BF
:101740005FD010B5044690F84130002B48D02423D8
:1017500084F841302268136823F001031360636842
:10176000226823F0706313612268936823F40043B6
:101770009360E368012B38D0A368226843F40443E4
:101780009360E368022B36D02268536823F4006329
:1017900053602268536843F0007343F4004353607E
:1017A0002268D36823F40043D3602369626913433A
:1017B000A169226843EA0123D360E369216A2268B0
:1017C0000B4313602268136843F001031360002089
:1017D0006064202384F84130206384F8420010BD07
:1017E00080F8403000F028FAB1E7A368226843F49B
:1017F00000439360C5E72268536843F40063536075
:10180000C7E7012070472DE9F04F83B00E46BDF8C1
:1018100034A00E9D90F84110202940F0BB80044672
:10182000914698460C9BCBB1BAF1000F16D090F8B8
:101830004030012B00F0B2804FF0010B80F840B037
:10184000FFF724FC0746009019235A464FF4004145
:101850002046FFF78DFE30B101209CE04FF400736D
:101860006364012097E0212384F84130402384F809
:101870004230002363640C9A6262A4F82AA0636376
:101880000197009543464A4631462046FFF7AEFE93
:1018900070B9638D9BB2FF2B0FD9FF2222850023E5
:1018A00000934FF0807331462046FFF789FD21E019
:1018B000002384F8403058466DE0628D92B2228554
:1018C000002300934FF00073D2B231462046FFF759
:1018D00077FD0FE0628D92B22285002300934FF0D6
:1018E0000073D2B231462046FFF76AFD638D9BB28A
:1018F000002B33D03A4629462046FFF709FE002840
:101900004ED1626A236812789A62636A0133636215
:10191000638D9BB2013B9BB26385238D013B9BB2E0
:101920002385628D92B2002AE0D0002BDED1009791
:101930002B46002280212046FFF71AFE90BB638DC4
:101940009BB2FF2BC6D9FF222285002300934FF0C4
:10195000807331462046FFF733FDC7E73A462946F4
:101960002046FFF7BDFEF8B923682022DA6121681E
:101970004B6823F0FF7323F48B3323F4FF7323F0BE
:1019800001034B6084F84120002384F8423084F83E
:10199000403000E0022003B0BDE8F08F0220FAE7FB
:1019A0000120F8E70120F6E70120F4E72DE9F04FE8
:1019B00083B00E46BDF834A00E9D90F8411020294A
:1019C00040F0BC800446914698460C9BCBB1BAF1DE
:1019D000000F16D090F84030012B00F0B3804FF08C
:1019E000010B80F840B0FFF751FB07460090192328
:1019F0005A464FF400412046FFF7BAFD30B10120AE
:101A00009DE04FF400736364012098E0222384F882
:101A10004130402384F84230002363640C9A6262B0
:101A2000A4F82AA063630197009543464A463146CD
:101A30002046FFF719FE70B9638D9BB2FF2B0FD9BB
:101A400001222285434B00934FF08073314620469C
:101A5000FFF7B6FC21E0002384F8403058466EE0E2
:101A6000628D92B222853B4B00934FF00073D2B24D
:101A700031462046FFF7A4FC0FE0628D92B222852A
:101A8000002300934FF00073D2B231462046FFF797
:101A900097FC638D9BB2002B34D000972B4600221D
:101AA00004212046FFF764FD00284DD123685A6ABF
:101AB000636A1A70636A01336362228D013A92B2DB
:101AC0002285638D9BB2013B9BB26385638D9BB284
:101AD000002BDED0002ADCD100972B468021204647
:101AE000FFF746FD90BB638D9BB2FF2BC5D901224A
:101AF0002285002300934FF0807331462046FFF784
:101B00005FFCC6E73A4629462046FFF7E9FDF8B9EB
:101B100023682022DA6121684B6823F0FF7323F4E5
:101B20008B3323F4FF7323F001034B6084F84120CF
:101B3000002384F8423084F8403000E0022003B0F3
:101B4000BDE8F08F0220FAE70120F8E70120F6E770
:101B50000120F4E700240080034690F84120202A69
:101B600023D190F84020012A21D0012280F8402082
:101B7000242280F841200068026822F001020260FD
:101B80001868026822F480520260186802680A43EA
:101B9000026019680A6842F001020A60202283F894
:101BA0004120002083F84000704702207047022047
:101BB0007047034690F84120202A21D190F8402018
:101BC000012A1FD0012280F84020242280F84120E1
:101BD0000068026822F0010202601868026822F4BC
:101BE000706242EA0122026019680A6842F001024A
:101BF0000A60202283F84120002083F840007047CB
:101C0000022070470220704782B00A4B1A6E42F0E1
:101C100001021A661A6E02F001020092009A9A6D91
:101C200042F080529A659B6D03F080530193019BB3
:101C300002B070470010024010B5AAB0044600215F
:101C400025912691279128912991882203A801F0B6
:101C500049FD2268184B9A4201D02AB010BD40239A
:101C6000039303A800F0B8FE10BB144CE36C43F0E0
:101C70000203E364E36C03F002030193019B4FF45E
:101C8000407325931223269300232793032328933D
:101C90000423299325A90A48FFF77CFAA36D43F48E
:101CA0000013A365A36D03F400130293029BD4E712
:101CB000FFF786F8D9E700BF00540040001002404B
:101CC0000004004810B5AAB00446002125912691D1
:101CD000279128912991882203A801F003FD226809
:101CE000184B9A4201D02AB010BD0223039303A8D7
:101CF00000F072FE10BB144B9A6D42F400329A65EC
:101D00009A6D02F400320192019ADA6C42F00102FB
:101D1000DA64DB6C03F001030293029B0C2325932E
:101D20000223269300232793032328930723299331
:101D300025A94FF09040FFF72DFAD4E7FFF740F8C0
:101D4000D9E700BF0044004000100240024B186871
:101D500000F4C060704700BF00700040B0F5007F25
:101D60000FD01F4B1B6803F4C063B3F5806F34D0F2
:101D70001B4A136823F4C06343F48063136000209C
:101D80007047174B1B6803F4C063B3F5007F20D086
:101D9000134A136823F4C06343F400731360114BB8
:101DA0001B68322202FB03F30F4AA2FB03239B0CA6
:101DB000013300E0013B0A4A526912F4806F01D0FE
:101DC000002BF7D1064B5B6913F4806F03D1002021
:101DD000704700207047032070470020704700BF05
:101DE000007000400C00002083DE1B4330B583B040
:101DF0000446204B9B6D13F0805F0BD0FFF7A6FFCE
:101E0000B0F5007F17D0802C1FD82DD0702C2DD08E
:101E100000211BE0174DAB6D43F08053AB65AB6DFC
:101E200003F080530193019BFFF790FFAB6D23F00C
:101E30008053AB65E4E7802C03D9A02C03D90221A1
:101E400004E0002102E0012100E003210A4A1368B6
:101E500023F007030B431360136803F007038B425F
:101E600006D1002003B030BD0221EFE70121EDE7EC
:101E70000120F7E70010024000200240254A936845
:101E8000D26802F0030213F00C0309D00C2B05D02A
:101E9000042B3BD0082B3BD000200FE0012AF7D1C8
:101EA0001C4A126812F0080F0CD11A4AD2F894207A
:101EB000C2F30322184951F8220013B10C2B06D0AB
:101EC00000207047134A1268C2F30312F2E7114B65
:101ED000DB6803F00303022B16D0032B00D10F485D
:101EE0000C49CA68C2F302120132CB68C3F306235D
:101EF00000FB03F3B3FBF2F3C868C0F341600130A9
:101F00004000B3FBF0F070470548E9E7044870472C
:101F10000248704700100240244A000800127A006C
:101F20000024F400002800F0F182F0B583B00446EC
:101F3000964B9D6805F00C05DE6806F00306036805
:101F400013F0100F5AD0E5B10C2D18D0A369002B57
:101F500000F0BB808D4A136843F001031360FFF764
:101F600095F80746894B1B6813F0020F40F09A80E2
:101F7000FFF78CF8C01B0228F4D90320D1E2012E10
:101F8000E4D1824B1B6813F0020F03D0A369002B2E
:101F900000F0BE82206A7D4B1B6813F0080F5BD0F7
:101FA0007A4B1B6803F0F00398425CD8774B1A68B1
:101FB00042F008021A601A6822F0F002216A0A430D
:101FC0001A605A6822F47F42E16942EA01225A60AB
:101FD000002D60D0FFF752FF6C4B9B68C3F30313D7
:101FE0006B4AD35C03F01F03D8406A4B18606A4BFE
:101FF0001868FFF701F8002840F09382236813F077
:10200000010F00F08180082D75D00C2D71D0636810
:10201000B3F5803F00F09780B3F5A02F00F09980D2
:102020005A4B1A6822F480321A601A6822F480220D
:102030001A606368002B00F09980FFF727F80746C5
:10204000524B1B6813F4003F5ED1FFF71FF8C01B13
:102050006428F5D9032064E24C4BD3F894301B0973
:1020600003F0F003A0E7FFF7C1FE002840F0528222
:10207000464B1A6842F008021A601A6822F0F00211
:10208000216A0A431A605A6822F47F42E16942EAEF
:1020900001225A609EE7206AFFF7A8FE002899D027
:1020A00001203EE2394B1A6842F008021A601A68B1
:1020B00022F0F002216A0A431A605A6822F47F4231
:1020C000E16942EA01225A6098E7304A136823F036
:1020D00001031360FEF7DAFF07462C4B1B6813F071
:1020E000020F8BD0FEF7D2FFC01B0228F5D90320C8
:1020F00017E2032E8BD1254B1B6813F4003F03D04E
:102100006368002B00F00882236813F0020F58D098
:10211000042D45D00C2D41D0E368002B77D01B4A0D
:10212000136843F480731360FEF7B0FF0646174B45
:102130001B6813F4806F61D1FEF7A8FF801B022893
:10214000F5D90320EDE1114A136843F4803313609D
:102150006FE703F18043A3F53C331A6842F4802211
:102160001A601A6842F480321A6062E7FEF78EFF46
:102170000746064B1B6813F4003FC5D0FEF786FFE9
:10218000C01B6428F5D90320CBE100BF001002403A
:102190005C4A00080C00002008000020022EBBD181
:1021A000A34B1B6813F4806F03D0E368002B00F08F
:1021B000B5819F4A536823F0F853216943EA0163CC
:1021C0005360236813F0080F4CD063699BB3984A9F
:1021D000D2F8943043F00103C2F89430FEF756FF72
:1021E0000646934BD3F8943013F0020F3AD1FEF722
:1021F0004DFF801B0228F4D9032092E18C4A5368DA
:1022000023F0F853216943EA01635360D9E7884A10
:10221000136823F480731360FEF738FF0646844B7F
:102220001B6813F4806FCCD0FEF730FF801B0228B0
:10223000F5D9032075E17E4AD2F8943023F00103EA
:10224000C2F89430FEF722FF0646794BD3F894305B
:1022500013F0020F06D0FEF719FF801B0228F4D9F5
:1022600003205EE1236813F0040F7AD0704B9B6D5E
:1022700013F0805F36D16E4B9A6D42F080529A65B2
:102280009B6D03F080530193019B0126694B1B68F2
:1022900013F4807F28D0A368012B39D0052B3FD0C1
:1022A000634BD3F8902022F00102C3F89020D3F8BA
:1022B000902022F00402C3F89020A368002B3DD0A8
:1022C000FEF7E4FE07465A4BD3F8903013F0020FA6
:1022D00046D1FEF7DBFEC01B41F288339842F2D9AB
:1022E00003201EE10026D1E7524A136843F48073AD
:1022F0001360FEF7CBFE07464E4B1B6813F4807F3E
:10230000C9D1FEF7C3FEC01B0228F5D9032008E19E
:10231000474AD2F8903043F00103C2F89030CCE73E
:10232000434BD3F8902042F00402C3F89020D3F836
:10233000902042F00102C3F89020BEE7FEF7A6FE0F
:1023400007463B4BD3F8903013F0020F08D0FEF74E
:102350009DFEC01B41F288339842F2D90320E0E091
:10236000EEB9A36A002B00F0DB80022B1DD00C2DF0
:1023700000F0DD802E4A136823F080731360FEF7AF
:1023800085FE04462A4B1B6813F0007F00F0B780DF
:10239000FEF77CFE001B0228F4D90320C1E0244A8A
:1023A000936D23F080539365DBE7214BDB6803F0EB
:1023B0000301E26A91420FD00C2D00F0B4801C4B57
:1023C0001B6813F0806F40F0B080194B1B6813F04E
:1023D000805F31D00120A4E003F07002216B01394D
:1023E000B2EB011FE8D103F4FE42616BB2EB012FA7
:1023F000E2D103F40031A26B073A18BF01229142E7
:10240000DAD103F4C001E26B5208013AB1EB425F4A
:10241000D2D103F0C063226C5208013AB3EB426F91
:10242000CAD1034B1B6813F0007F4ED0002078E028
:1024300000100240007000403E4A136823F0807391
:102440001360FEF723FE05463A4B1B6813F0007F2E
:1024500006D0FEF71BFE401B0228F5D9032060E0E2
:10246000344AD36834491940E36A206B013843EA9F
:102470000013606B43EA0023E06B4008013843EA35
:102480004053206C4008013843EA4063A06B0009C8
:1024900043EA40431943D160136843F080731360EB
:1024A000D36843F08073D360FEF7F0FD0446214B00
:1024B0001B6813F0007F06D1FEF7E8FD001B022821
:1024C000F5D903202DE000202BE01A4B1A6842F0CA
:1024D00080721A60DA6842F08072DA60FEF7D6FD28
:1024E0000446144B1B6813F0007F06D1FEF7CEFDA7
:1024F000031B022BF5D9032013E0002011E00D4A45
:10250000D1680E4B0B40D36000200AE001207047D9
:10251000012006E0012004E0012002E0012000E0AB
:10252000002003B0F0BD0120FBE70120F9E7012006
:10253000F7E700BF001002408C809DF9FCFFEEFE23
:10254000002800F0AF8070B50D460446594B1B685B
:1025500003F007038B420BD2564A136823F007039C
:102560000B431360136803F007038B4240F09C8019
:10257000236813F0020F0CD0A2684F4B9B6803F046
:10258000F0039A4205D94C498B6823F0F0031A43B3
:102590008A60236813F0010F39D06368032B09D0D8
:1025A000022B26D063BB444A126812F0020F06D1F8
:1025B000012076E0404A126812F0007F76D03E4952
:1025C0008A6822F0030213438B60FEF75FFD064624
:1025D000394B9B6803F00C036268B3EB820F16D093
:1025E000FEF754FD801B41F288339842F0D9032056
:1025F00057E0314A126812F4003FE0D1012050E068
:102600002D4A126812F4806FD9D1012049E0236865
:1026100013F0020F0CD0A268274B9B6803F0F00365
:102620009A4205D224498B6823F0F0031A438A604A
:10263000204B1B6803F00703AB420AD91D4A1368FD
:1026400023F007032B431360136803F00703AB4227
:102650002ED1236813F0040F06D0174A936823F491
:10266000E063E1680B439360236813F0080F07D021
:10267000114A936823F46053216943EAC1039360CC
:10268000FFF7FCFB0C4B9B68C3F303130B4AD35CB3
:1026900003F01F03D8400A4B18600A4B1868FEF776
:1026A000ABFC70BD012070470120FAE70120F8E77C
:1026B0000120F6E700200240001002405C4A0008BA
:1026C0000C00002008000020014B1868704700BF74
:1026D0000C00002008B5FFF7F7FF054B9B68C3F31C
:1026E0000223044AD35C03F01F03D84008BD00BF97
:1026F00000100240544A000808B5FFF7E5FF054BFB
:102700009B68C3F3C223044AD35C03F01F03D84081
:1027100008BD00BF00100240544A0008F8B5044646
:102720000D46594BDB6813F0030F18D0564BDB688E
:1027300003F003030268934202D001263046F8BD3D
:10274000002A00F09D80504BDB68C3F30213013375
:102750004268934201D00126F0E7002619E00368A1
:10276000022B56D0032B5BD0012B40F08B80464AC6
:10277000126812F0020F5FD04348C26822F0730261
:102780006168013943EA01131343C3600026002E38
:10279000D4D13D4A136823F080631360FEF776FCC2
:1027A0000746394B1B6813F0006F05D0FEF76EFC2F
:1027B000C31B022BF5D90326002EBFD1002D3DD11E
:1027C00031490B6923F41F3323F44073A068E26896
:1027D0001209520442EA002213430B612A4A136889
:1027E00043F080631360FEF751FC0546264B1B68DF
:1027F00013F0006F05D1FEF749FC401B0228F5D904
:102800000326002E9AD1204A1369A1690B43136154
:1028100094E71D4A126812F4806FADD101268DE74E
:10282000194A126812F4003FA6D1174A126812F42E
:10283000802FA1D1012681E70126A8E7012D0FD025
:102840001148026922F0C06222F4FE42A168636965
:102850005B08013B5B0643EA01231A430261BDE7C3
:102860000948026922F4C00222F4FE42A1682369E9
:102870005B08013B5B0543EA01231A430261ADE7B4
:1028800001265BE7012659E700100240F8B504462F
:102890000D46504BDB6813F0030F18D04D4BDB682F
:1028A00003F003030268934202D001263046F8BDCC
:1028B000002A00F08A80474BDB68C3F30213013320
:1028C0004268934201D00126F0E7002618E0036831
:1028D000022B55D0032B5AD0012B78D13D4A1268D8
:1028E00012F0020F5FD03B48C26822F073026168A9
:1028F000013943EA01131343C3600026002ED5D1EA
:10290000344A136823F080531360FEF7BFFB074679
:10291000304B1B6813F0005F05D0FEF7B7FBC31BFD
:10292000022BF5D90326002EC0D1002D3DD1294917
:102930004B6923F41F3323F44073A068E268120943
:10294000520442EA002213434B61224A136843F0C7
:1029500080531360FEF79AFB05461E4B1B6813F06D
:10296000005F05D1FEF792FB401B0228F5D9032634
:10297000002E9BD1174A536961690B43536195E758
:10298000144A126812F4806FADD101268EE7114A05
:10299000126812F4003FA6D10E4A126812F4802F7A
:1029A000A1D1012682E70126A8E70A48426922F060
:1029B000C06222F4FE42A16823695B08013B5B060A
:1029C00043EA01231A434261BFE701266EE701266D
:1029D0006CE700BF001002402DE9F04182B00446D0
:1029E000036813F4006F33D0436EB3F5000F15D0B6
:1029F0000CD823B3B3F5800F05D100212030FFF7A9
:102A000045FF064620E001273E4623E0B3F5400F90
:102A100001D1002608E001273E461BE05E4AD3684C
:102A200043F48033D36000265B4AD2F8883023F425
:102A30004003616E0B43C2F8883000270AE0002192
:102A40000430FFF76BFE0646002EEDD0374601E05E
:102A500000273E46236813F4805F30D0A36EB3F1A5
:102A6000007F1FD00DD81BB3B3F1807F06D10021AA
:102A700004F12000FFF70AFF064605E001273E4665
:102A80001DE0B3F1407F0AD1C6B9434AD2F888307D
:102A900023F04073A16E0B43C2F888300FE001278A
:102AA0003E460CE03C4AD36843F48033D360EBE706
:102AB0000021201DFFF732FE0646E5E73746236872
:102AC00013F4003F71D0344B9B6D13F0805F4ED1F7
:102AD000314B9A6D42F080529A659B6D03F08053A2
:102AE0000193019B4FF001082C4A136843F4807353
:102AF0001360FEF7CBFA0546284B1B6813F4807F62
:102B000005D1FEF7C3FA401B0228F5D90326002E93
:102B100046D1214BD3F8903013F4407319D0D4F838
:102B200084209A4212D01C4AD2F8903023F4407389
:102B3000D2F8901041F48031C2F89010D2F8901081
:102B400021F48031C2F89010C2F8903013F0010FD8
:102B500010D1002E40F027810F4AD2F8903023F494
:102B60004073D4F884100B43C2F8903019E04FF052
:102B70000008B9E7FEF78AFA0546074BD3F890300C
:102B800013F0020FE5D1FEF781FA401B41F28833C2
:102B90009842F2D90326DCE70010024000700040A2
:102BA0003746B8F1000F40F00081236813F0010FA1
:102BB00008D09D4AD2F8883023F00303A16B0B4361
:102BC000C2F88830236813F0020F08D0964AD2F872
:102BD000883023F00C03E16B0B43C2F88830236884
:102BE00013F0040F08D0904AD2F8883023F0300355
:102BF000216C0B43C2F88830236813F0080F08D00B
:102C0000894AD2F8883023F0C003616C0B43C2F8C4
:102C10008830236813F0100F08D0834AD2F8883028
:102C200023F44073A16C0B43C2F88830236813F07F
:102C3000200F08D07C4AD2F8883023F44063E16C3E
:102C40000B43C2F88830236813F4007F08D0764A1B
:102C5000D2F8883023F44023E16D0B43C2F888306A
:102C6000236813F4806F08D06F4AD2F8883023F4B9
:102C70004013216E0B43C2F88830236813F0400FD5
:102C800008D0694AD2F8883023F44053216D0B43B1
:102C9000C2F88830236813F0800F08D0624AD2F857
:102CA000883023F44043616D0B43C2F888302368B9
:102CB00013F4807F08D05C4AD2F8883023F4403384
:102CC000A16D0B43C2F88830236813F4005F0FD066
:102CD000554AD2F8883023F04063E16E0B43C2F8C6
:102CE0008830E36EB3F1006F65D0B3F1806F67D0C9
:102CF000236813F4002F0FD04B4AD2F8883023F00A
:102D00004063216F0B43C2F88830236FB3F1006F2B
:102D10005ED0B3F1806F60D0236813F4802F0FD0A2
:102D2000414AD2F8883023F04063616F0B43C2F808
:102D30008830636FB3F1006F57D0B3F1806F59D013
:102D4000236813F4804F0FD0374AD2F8883023F02D
:102D50004053A16F0B43C2F88830A36FB3F1805F7B
:102D600050D0B3F1005F55D0236813F4004F08D062
:102D70002D4AD2F8883023F08043E16F0B43C2F82C
:102D80008830236813F4803F09D0274AD2F888306E
:102D900023F00043D4F880100B43C2F88830384643
:102DA00002B0BDE8F0813746FBE61F4A936D23F081
:102DB00080539365F9E6D36843F48013D36097E7B3
:102DC0000121201DFFF7AAFC002891D007468FE7BC
:102DD000D36843F48013D3609EE70121201DFFF7E1
:102DE0009DFC002898D0074696E7D36843F48013EB
:102DF000D360A5E70121201DFFF790FC00289FD09C
:102E000007469DE70221201DFFF788FC0028ABD074
:102E10000746A9E7022104F12000FFF737FD00284B
:102E2000A2D00746A0E700BF00100240026852E8A7
:102E3000003F23F4907342E800310029F6D1026884
:102E400002F1080353E8003F23F00103083242E88F
:102E500000310029F3D1036E012B06D02023C0F8E6
:102E600080300023036683667047026852E8003FA3
:102E700023F0100342E800310029F6D1EEE700000C
:102E800010B5044683680269134342691343C2695B
:102E90001343016808688F4A02401A430A60226897
:102EA000536823F44053E1680B435360A1692268DF
:102EB000894B9A4201D0236A1943936823F4306303
:102EC0000B4393602368854A934210D0844A93420F
:102ED00021D0844A93424DD0834A93425DD0834AA5
:102EE00093426CD07C4A93427ED010222BE002F5B4
:102EF0005842D2F8882002F00302032A09D8DFE8FA
:102F000002F00204880601221DE004221BE00822D0
:102F100019E0102217E002F5E632D2F8882002F01C
:102F20000C020C2A0ED8DFE802F0070D0D0D090D7A
:102F30000D0D760D0D0D0B00002204E0042202E0C1
:102F4000082200E0102264498B4200F08680E0698C
:102F5000B0F5004F00F0B280082A00F21981DFE8D6
:102F600012F0ED000001EB0017010301170117013A
:102F70001701060102F5E432D2F8882002F030028F
:102F8000202A4AD005D8002A49D0102A49D1042243
:102F9000D9E7302A47D10822D5E702F5E232D2F844
:102FA000882002F0C002802A3FD004D8FAB3402A19
:102FB0003FD10422C7E7C02A3DD10822C3E702F56A
:102FC000E032D2F8882002F44072B2F5007F34D0AB
:102FD00005D8A2B3B2F5807F33D10422B3E7B2F5AE
:102FE000407F30D10822AEE702F5C832D2F88820FF
:102FF00002F44062B2F5006F27D005D83AB3B2F5BB
:10300000806F26D104229EE7B2F5406F23D10822BB
:1030100099E7022297E7022295E7022293E700222E
:1030200091E710228FE710228DE702228BE7002222
:1030300089E7102287E7102285E7022283E7002232
:1030400081E710227FE710227DE702227BE7002242
:1030500079E7102277E7102275E7082A00F28A80C4
:10306000DFE802F0088810880D88888805004FF492
:10307000004008E0FFF72EFB28B9002089E0FEF7AA
:10308000FDFEF9E71A48626802EB4203834273D8F7
:10309000B0EB023F72D8010E00025308C0184FF087
:1030A000000341F10001FDF7F9FBA0F54072114B5F
:1030B0009A4265D82368D86000206AE0082A61D85F
:1030C000DFE802F01A340560376060601E000848CF
:1030D00016E000BFF369FFEF0080004000380140B8
:1030E0000044004000480040004C004000500040B8
:1030F0000024F400FFFC0F00FFF7ECFA002843D097
:103100006268530803EB4003B3FBF2F3A3F1100131
:103110004FF6EF72914239D89AB222F00F02C3F300
:10312000420313432268D360002032E0FFF7E4FA41
:10313000E4E7FEF7A3FEE1E71A4802E0FFF7CAFA68
:1031400058B3636800EB5300B0FBF3F0A0F110023A
:103150004FF6EF739A4222D8236880B2D8600020DD
:1031600017E0FFF7C9FAEBE7FEF788FEE8E74FF450
:103170000040E6E701200CE001200AE0012008E021
:10318000012006E0012004E0002002E0012000E030
:1031900001200023A366E36610BD0020F9E70120AB
:1031A000F7E700BF0024F400436A13F0080F06D0CD
:1031B0000268536823F40043416B0B435360436A36
:1031C00013F0010F06D00268536823F40033816ABC
:1031D0000B435360436A13F0020F06D00268536832
:1031E00023F48033C16A0B435360436A13F0040F26
:1031F00006D00268536823F48023016B0B435360AD
:10320000436A13F0100F06D00268936823F48053CA
:10321000816B0B439360436A13F0200F06D0026862
:10322000936823F40053C16B0B439360436A13F01C
:10323000400F0AD00268536823F48013016C0B43DB
:103240005360036CB3F5801F0BD0436A13F0800FFB
:1032500006D00268536823F40023816C0B4353604B
:1032600070470268536823F4C003416C0B435360FA
:10327000EBE72DE9F84305460E4617469946DDF87B
:1032800020802B68DC6936EA04040CBF012400248A
:10329000BC4236D1B8F1FF3FF3D0FDF7F7FEA0EB0B
:1032A0000900404530D8B8F1000F2FD02B681A68BC
:1032B00012F0040FE5D0802EE3D0402EE1D0DA6981
:1032C00012F0080F11D1DA6912F4006FD9D04FF45F
:1032D00000621A622846FFF7A9FD2023C5F8843052
:1032E000002385F8783003200CE008241C6228466F
:1032F000FFF79CFDC5F88440002385F87830012055
:1033000000E00020BDE8F8830320FBE70320F9E795
:1033100030B583B004460023C0F88430FDF7B6FE14
:1033200005462268126812F0080F0FD123681B6847
:1033300013F0040F26D12023E367C4F88030002067
:103340002066606684F8780003B030BD6FF07E437D
:103350000093034600224FF400112046FFF789FF37
:103360000028E3D0226852E8003F23F0800342E8BF
:1033700000310029F6D12023E367002384F8783058
:103380000320E1E76FF07E4300932B4600224FF4C9
:1033900080012046FFF76DFF0028CCD0226852E85C
:1033A000003F23F4907342E800310029F6D12268EF
:1033B00002F1080353E8003F23F00103083242E81A
:1033C00000310029F3D12023C4F88030002384F891
:1033D00078300320B8E768B310B50446C36F03B371
:1033E0002423E3672268136823F001031360636AF0
:1033F000E3B92046FFF744FD012811D02268536845
:1034000023F4904353602268936823F02A03936067
:103410002268136843F0010313602046FFF778FF2A
:1034200010BD80F87830FEF74DFCD9E72046FFF755
:10343000BBFEDEE701207047FEE7FEE7FEE7FEE7A2
:10344000FEE770477047704708B5FDF713FE08BDEB
:1034500070B50C461646002506E0AFF30080214605
:1034600001F8010B01350C46B542F6DB304670BD64
:103470004FF0FF3070474FF400534B60002070470F
:10348000012070470020704710B503460C4A0D49D3
:103490000D48006840B10C4800680344521A93423A
:1034A00006D8094A136010BD0748084C0460F2E7CB
:1034B00000F020F90C2303604FF0FF30F3E700BF6A
:1034C00000800120000400000C02002060030020A6
:1034D000034AD2F8883043F47003C2F8883070474A
:1034E00000ED00E0DFF834D0FFF7F2FF0C480D49A3
:1034F0000D4A002302E0D458C4500433C4188C424F
:10350000F9D30A4A0A4C002301E013600432A242B4
:10351000FBD300F0F5F8FDF7D9FCFEE700800120B1
:103520000000002070000020F04A00087000002019
:103530005C030020FEE70000002310B50446C0E94C
:103540000033C0E90433836081814366C2818361B3
:10355000194608225C3000F0C5F80D4B63620D4B34
:10356000A3620D4BE3620D4B23630D4B24629C421F
:1035700006D003F16802944202D0D0339C4205D1B8
:1035800004F15800BDE8104000F0DEB810BD00BFE7
:103590009D3F0008BF3F0008F73F00081D4000089E
:1035A00010020020024A0349034800F06BB800BF34
:1035B00010000020353F00082000002041680C4B1F
:1035C000994210B5044601D000F0B4FCA168094B43
:1035D000994202D0204600F0ADFCE168064B9942CA
:1035E00004D02046BDE8104000F0A4BC10BD00BFD0
:1035F0001002002078020020E00200200C4B0D4A4F
:103600000D4810B504211A600022FFF795FF0A4B00
:1036100001221C46092103F16800FFF78DFF04F128
:10362000D0000222BDE810401221FFF785BF00BF85
:1036300048030020A535000810020020014800F0D2
:1036400084B800BF4D030020014800F07FB800BFE0
:103650004D03002010B50446FFF7F0FF236A1BB1AD
:10366000BDE81040FFF7F0BF044B2362044B1B681A
:10367000002BF5D1FFF7C2FFF2E700BFBD35000810
:10368000480300202DE9F8430746884614460026E3
:10369000D4E90195B9F1010905D52468002CF7D1C9
:1036A0003046BDE8F883AB89012B07D9B5F90E3058
:1036B000013303D029463846C04706436835E9E759
:1036C0000FB407B5064904AB086853F8042B8168AA
:1036D000019300F065F803B05DF804EB04B07047A7
:1036E0001C00002002440346934200D1704703F8B7
:1036F000011BF9E7014B1868704700BF1C00002050
:1037000070B50D4B0D4D5B1B9C100026A64209D1D8
:1037100001F05EF90A4D0B4B5B1B9C100026A64284
:1037200005D170BD55F8043B98470136EEE755F8D2
:10373000043B98470136F2E7E04A0008E04A0008F7
:10374000E04A0008E44A00087047704770479368F1
:10375000013B002B10B4936008DA9469A34201DBAB
:103760000A2903D15DF8044B00F05CBC1368581CB7
:103770001060197008465DF8044B7047F8B50646AE
:103780000F461446D518AC4201D1002007E014F8CA
:10379000011B3A463046FFF7DAFF431CF3D1F8BD70
:1037A0002DE9F04F0D469DB014469846064618B1D7
:1037B000036A0BB9FFF74EFF6B6ED90705D4AB89CF
:1037C0009A0502D4A86DFFF7C0FFAB891B0701D58E
:1037D0002B699BB92946304600F062FC70B16B6ED4
:1037E000DC0704D54FF0FF301DB0BDE8F08FAB898A
:1037F0009805F7D4A86DFFF7A9FFF3E70023099315
:1038000020238DF82930CDF80C803023DFF8AC81EF
:103810008DF82A304FF0010923469A4613F8012B00
:103820000AB1252AF9D1BAEB040B0BD05B4622462C
:1038300029463046FFF7A2FF013000F0A780099A21
:103840005A4409929AF80030002B00F09F80002320
:103850004FF0FF32CDE905230AF1010A04930793E3
:103860008DF853301A935446052214F8011B53481F
:10387000FCF78EFC049AD8B9D10644BF20238DF8FA
:103880005330130744BF2B238DF853309AF8003080
:103890002A2B15D0079A544600204FF00A0C2146D7
:1038A00011F8013B303B092B4BD9B0B1079214E022
:1038B000A0EB080309FA03F313430493A246D2E7EB
:1038C000039B191D1B680391002BBBBF5B4242F099
:1038D000020207930793B8BF049223782E2B0AD1D4
:1038E00063782A2B32D1039B1A1D1B68039243EA8B
:1038F000E37302340593DFF8D4A021780322504605
:10390000FCF746FC38B1049BA0EB0A004022824041
:1039100013430134049314F8011B29488DF828102F
:103920000622FCF735FC00283FD0264B1BBB039B2F
:10393000073323F0070308330393099B3B440993A0
:103940006AE70CFB02320C460120A8E70023013491
:10395000059319464FF00A0C204610F8012B303A17
:10396000092A03D9002BC6D00591C4E70CFB01211D
:1039700004460123F0E703AB00932A46124B04A947
:103980003046AFF300800746781CD6D16B6ED9075E
:1039900005D4AB899A0502D4A86DFFF7D7FEAB8991
:1039A0005B063FF51FAF09981EE703AB00932A465D
:1039B000054B04A9304600F01BF9E4E76C4A000807
:1039C000764A0008000000007D370008724A0008AF
:1039D00070B50F4E0C463168054611B900F046FC33
:1039E00030602146284600F041FC431C03D14FF0D3
:1039F000FF34204670BDC41C24F00304A042F8D05C
:103A0000211A284600F032FC0130F2D1EFE700BF66
:103A1000500300202DE9F843CD1C25F0030508359F
:103A20000C2D38BF0C25002D064601DBA94204D918
:103A30000C2333600020BDE8F883DFF8D48000F069
:103A4000A1FAD8F800301C4644BB29463046FFF79F
:103A5000BFFF431C044658D1D8F800402746002F2A
:103A600043D1002C4BD023683946304604EB030980
:103A700000F0FCFB814542D121686D1A2946304691
:103A8000FFF7A6FF01303AD023682B442360D8F813
:103A900000305A6862BBC8F800700FE02268521B01
:103AA00020D40B2A17D96119A342256018BF596089
:103AB000636808BFC8F8001062514B60304600F0E0
:103AC00067FA04F10B00231D20F00700C21A1CBF87
:103AD0001B1AA350AFE76268A3420CBFC8F80020CE
:103AE0005A60EBE723466468AEE73C467F68B6E77A
:103AF0001A465B68A342FBD100235360DEE70C2328
:103B00003360304600F044FA94E70560D6E700BF22
:103B1000540300202DE9F047164698468A680B6941
:103B2000DDF820909342B8BF1346336091F84320EC
:103B300007460C460AB1013333602368990642BF39
:103B4000336802333360256815F0060506D104F1A9
:103B5000190AE36832689B1AAB4226DC94F84330BA
:103B60002268003B18BF012392062BD404F14302C4
:103B700041463846C84701301ED02368226903F009
:103B80000603042B02BFE5683368ED1AA3680CBF77
:103B900025EAE57500259342C4BF9B1AED1800265F
:103BA0001A34B5421AD1002008E00123524641469A
:103BB0003846C847013003D14FF0FF30BDE8F087E9
:103BC0000135C6E7E1185A1C302081F84300224431
:103BD00094F8451082F843100233C7E701232246C8
:103BE00041463846C8470130E6D00136D9E70000E3
:103BF0002DE9FF470F7E0C9E782F914680460C469C
:103C00009A4601F1430207D8622F0AD8002F00F02C
:103C1000D280582F00F0B78004F1420684F8427039
:103C20003AE0A7F16303152BF6D801A151F823F070
:103C3000893C00089D3C0008193C0008193C00081C
:103C4000193C0008193C00089D3C0008193C00087C
:103C5000193C0008193C0008193C00089D3D00086B
:103C6000C73C0008533D0008193C0008193C0008F7
:103C7000BF3D0008193C0008C73C0008193C00087B
:103C8000193C00085B3D000833681A1D1B68326050
:103C900004F1420684F8423001239DE03368206835
:103CA000191D3160060601D51D6803E04506FBD5E8
:103CB000B3F90050002D03DA2D236D4284F8433010
:103CC00059480A2310E021683368080653F8045B5A
:103CD00002D4490648BFADB26F2F5348336059D163
:103CE0000823002184F843106668A660002E05DBD7
:103CF00021682E4321F0040121604DD01646B5FB0A
:103D0000F3F103FB1157C75D06F8017D2F46BB4257
:103D10000D46F4D9082B0BD12368DF0708D523699A
:103D200061689942DEBF302306F8013C06F1FF3698
:103D3000921B2261CDF800A04B4603AA21464046C3
:103D4000FFF7E8FE01304CD14FF0FF3004B0BDE882
:103D5000F087236843F0200323603448782784F8F1
:103D60004570236831681F0651F8045B02D45F0672
:103D700048BFADB23160D90744BF43F02003236090
:103D80001DB11023ADE72848E9E7236823F020039D
:103D90002360F6E70A23A4E71646BBE733682568E5
:103DA0006169181D30602E061B6801D5196002E09C
:103DB0006806FBD51980002323611646BAE73368ED
:103DC0001A1D32601E68626800213046FCF7E0F977
:103DD00008B1801B606063682361002384F843306E
:103DE000A8E72369324649464046D0470130ABD068
:103DF00023689B0713D4E068039B9842B8BF18461A
:103E0000A4E70123324649464046D04701309BD0C3
:103E10000135E36803995B1AAB42F2DCEBE700255E
:103E200004F11906F5E700BF7D4A00088E4A000834
:103E3000B1F90C202DE9F041160705460C4651D486
:103E40004B68002B02DC0B6C002B49DDE66A002E70
:103E500046D0002312F480522F682B6031D0626D5F
:103E6000A389590705D56368D21A636B0BB1236C1C
:103E7000D21A0023E66A216A2846B047421CB4F9E8
:103E80000C3006D129681D2946D8294ACA40D607D0
:103E900042D500226260D9042269226004D5421C06
:103EA00001D12B6803B96065616B2F60C1B104F16A
:103EB0004403994202D0284600F01CFA00236363B1
:103EC0000EE0216A01232846B0470246501CC7D1A4
:103ED0002B68002BC4D01D2B01D0162B1AD12F60BC
:103EE00000201EE00F69002FFAD093070E6808BF6C
:103EF0004B690F6018BF0023A6EB07088B60B8F171
:103F0000000FEDDD216AA66A43463A462846B047CF
:103F1000002808DCB4F90C3043F04003A3814FF0D3
:103F2000FF30BDE8F0810744A8EB0008E7E700BFD9
:103F30000100402038B50B6905460C4613B9002531
:103F4000284638BD18B1036A0BB9FFF783FBB4F9F3
:103F50000C30002BF3D0626ED00704D4990502D444
:103F6000A06DFFF7F2FB28462146FFF761FF636E65
:103F7000DA070546E4D4A3899B05E1D4A06DFFF7D9
:103F8000E5FBDDE70148FFF7E0BB00BF4C03002085
:103F90000148FFF7DBBB00BF4C03002010B50C4607
:103FA000B1F90E1000F050F90028ABBF636DA38982
:103FB0001B1823F48053ACBF6365A38110BD2DE9AA
:103FC000F0411F468B89DB0505460C46164605D594
:103FD000B1F90E100223002200F024F9A389B4F9EC
:103FE0000E1023F48053A38132463B462846BDE899
:103FF000F04100F04BB910B50C46B1F90E1000F0CD
:1040000011F9B4F90C30421C0BBF23F4805343F474
:104010008053A381A38118BF606510BDB1F90E1054
:1040200000F046B9F8B50E461446054618B1036AC5
:104030000BB9FFF70FFBA369A360A3891A0701D58A
:10404000236943B92146284600F02AF818B14FF0F9
:10405000FF373846F8BD23682269981A6369F6B2BB
:104060008342374605DC21462846FFF763FF0028D8
:10407000EDD1A368013BA36023685A1C22601E7027
:104080006269431C9A4204D0A389DB07E1D50A2E5A
:10409000DFD121462846FFF74DFF0028D9D0D6E7CB
:1040A00038B5284B054618680C4618B1036A0BB999
:1040B000FFF7D0FAB4F90C301A0721D4D80607D488
:1040C00009222A6043F04003A3814FF0FF3030E023
:1040D000590712D5616B41B104F14403994202D0F2
:1040E000284600F007F9002363630022B4F90C307E
:1040F00062602269226023F0240343F00803A38155
:1041000022693AB99A0501D5180603D521462846F1
:1041100000F03EF8B4F90C3013F001020AD000228E
:10412000A26062695242A261226942B913F0800022
:10413000C8D138BD990758BF6269A260F4E7002072
:10414000F7E700BF1C00002070B50C46B1F90E1057
:10415000002996B015461E460ADAA18911F08001A1
:1041600013D14FF48062002031602A6016B070BD18
:104170006A4600F0ADF80028EFDB019901F47041C8
:10418000A1F5005359425941EBE700214022EAE7EB
:104190008B8973B59E0705460C4607D504F1470386
:1041A000236023610123636102B070BD01AB6A46E5
:1041B000FFF7CAFF009E28463146FFF72BFCB4F9F3
:1041C0000C3038B99A05EFD423F0030343F002030F
:1041D000A381E3E743F08003A381019B2060C4E94E
:1041E0000406002BE0D0B4F90E10284600F00AF8BF
:1041F0000028D9D0A38923F0030343F00103A3814E
:10420000D2E7000038B5064D0023044608462B606F
:10421000FFF736F9431C02D12B6803B1236038BD88
:104220005803002038B5074D0446084611460022C1
:104230002A601A46FFF726F9431C02D12B6803B106
:10424000236038BD5803002038B5074D04460846A2
:10425000114600222A601A46FFF7FAF8431C02D1E1
:104260002B6803B1236038BD5803002038B5064DD4
:104270000023044608462B60FFF706F9431C02D1D1
:104280002B6803B1236038BD5803002038B5074DB3
:1042900004460846114600222A601A46FCF782FDB1
:1042A000431C02D12B6803B1236038BD58030020A2
:1042B00038B5064D0023044608462B60FFF7D8F8B2
:1042C000431C02D12B6803B1236038BD5803002082
:1042D00038B5074D00230446084611462B60FFF70A
:1042E000CAF8431C02D12B6803B1236038BD00BF5C
:1042F0005803002038B50546002941D051F8043C48
:104300000C1F002BB8BFE418FFF73CFE1D4A1368D2
:1043100033B9636014602846BDE83840FFF738BE03
:10432000A34208D9206821188B4201BF19685B6835
:1043300009182160EDE71A465B680BB1A342FAD970
:1043400011685018A0420BD12068014450188342D4
:104350001160E0D118685B68536008441060DAE7C8
:1043600002D90C232B60D6E7206821188B4204BFAA
:1043700019685B68636004BF091821605460CAE76C
:1043800038BD00BF5403002000F022B808B52DED61
:10439000028BB0EE408A00F0C1F8B4EE488AF1EE2C
:1043A00010FA06D6DFED098AB4EEE88AF1EE10FACB
:1043B00002D4BDEC028B08BDFFF79CF988EEA80A79
:1043C000BDEC028B2123036008BD00BF000000008C
:1043D00010B582B0CDED010A019B23F00042B2F18D
:1043E000FF4FF0EE407A30D810EE100A20F0004176
:1043F000B1F1FF4F29D8B3F17E5F3ED09C1704F096
:10440000020444EAD07431B37AB3B2F1FF4F3FD023
:10441000B1F1FF4F29D0891AB1F1F45F4FEAE152AF
:1044200033DA002B41DA3C323FDA9FED330A012CBC
:104430004DD0022C42D064B19FED307ADFED307A5E
:1044400030EE070A30EE670A03E09DED017A37EEA1
:10445000270A02B010BD022C0CD09FED2A7A032C43
:1044600008BFB0EE470A02B010BD00280ADB9FED7E
:10447000260AEEE79FED220AEBE702B0BDE8104006
:1044800000F050B89FED210AE3E79FED1F0ACEE749
:10449000B1F1FF4F04F1FF3420D0022C26D81C4B81
:1044A00003EB840393ED000AD3E79DED017A87EED9
:1044B000870A00F009F900F035F8B8E79FED0F7AA8
:1044C000DFED0F7A30EE070A37EEC00AC1E710EED3
:1044D000103A03F1004300EE103ABAE7022C08D874
:1044E0000C4B03EB840393ED000AB2E79FED020A45
:1044F000AFE79FED090AACE7000000002EBDBB331B
:10450000DB0F4940DB0F49C0DB0FC93FDB0FC9BFE1
:10451000A04A0008AC4A0008DB0F493FB1EEC00AD0
:10452000704700BF38B510EE105A25F00044B4F1C2
:10453000A14FF0EE407A07D3B4F1FF4F55D8002DCC
:1045400077DD9FED4E0A38BD4D4B9C425CD8B4F1EF
:10455000445F4DD34FF0FF3327EEA76A9FED495AD2
:104560009FED497ADFED495ADFED494A66EE066A6A
:104570005A1CA6EE857AE6EEA54A9FED465ADFED77
:10458000465AA7EE265AE4EEA65A9FED447ADFED8E
:10459000444AA5EE267AE5EEA64A9FED425ADFEDA3
:1045A000425AA7EE265A9FED417AA4EEA67AE5EE8E
:1045B000265A27EE267AA5EE867A27EE877A3BD012
:1045C0003B493C4A01EB8301D1ED006A37EE667A44
:1045D00002EB8303D3ED006A37EE677A002D36EEE7
:1045E000C70AB0DAB1EE400A38BD30EE000A38BD75
:1045F0009FED317A30EE077AF7EE006AB4EEE67A94
:10460000F1EE10FAA6DD38BD00F05EF82B4B9C42AF
:1046100015D8A3F5D0039C4226D8F0EE007ABFEE61
:10462000007AA0EE277A002330EE270AC7EE007A40
:1046300092E79FED230A38BD37EEC70A38BD214BFC
:104640009C420BD8F7EE087AB7EE007AA0EE277AF4
:10465000022330EE670AC0EE077A7DE7BFEE007AEC
:10466000C7EE007A032377E7F7EE007A30EE677A39
:1046700030EE270A0123C7EE007A6DE7DB0FC93F52
:10468000FFFFDF3ED769853C59DA4B3D21A215BDBE
:104690006BF16EBD356B883D95879DBD6E2EBA3D25
:1046A000388EE3BD2549123EABAAAA3ECDCC4CBE06
:1046B000B84A0008C84A0008CAF24971FFFF973F8C
:1046C000DB0FC9BFFFFF1B4010EE103A23F0004381
:1046D00000EE103A704700BF2DE9F047089D0F46E5
:1046E00004468C46002B48D18A42164661D9B2FA5C
:1046F00082F34BB1C3F1200201FA03FC20FA02F26B
:104700009E4042EA0C0C9C404FEA164EB7B2BCFBEE
:10471000FEF1220C0EFB11CC42EA0C4201FB07F029
:10472000904209D9B21801F1FF3C80F0EE8090422E
:1047300040F2EB8002393244121AA4B2B2FBFEF00E
:104740000EFB102244EA024400FB07F7A74209D9F6
:10475000341900F1FF3280F0DA80A74240F2D780AE
:104760003444023840EA0140E41B00211DB1DC4022
:104770000023C5E90043BDE8F0878B4206D90DB19F
:10478000C5E9000100210846BDE8F087B3FA83F1CE
:10479000002948D1BB4202D3824200F20781841A29
:1047A00067EB030201209446002DE4D0C5E9004CDC
:1047B000E1E7002A00F09280B2FA82F3002B40F089
:1047C000A8808A1A4FEA164E1FFA86FC0121200C97
:1047D000B2FBFEF70EFB172240EA02420CFB07F089
:1047E000904207D9B21807F1FF3802D2904200F286
:1047F000E2804746121AA4B2B2FBFEF00EFB102272
:1048000044EA02440CFB00FCA44507D9341900F12A
:10481000FF3202D2A44500F2CB801046A4EB0C0478
:1048200040EA0740A2E7C1F120068B4022FA06FCCD
:104830004CEA030C07FA01F420FA06F3F7404FEABA
:104840001C49234300FA01F81FFA8CFEB7FBF9F06C
:104850001C0C09FB107744EA074400FB0EF7A74243
:1048600002FA01F20AD91CEB040400F1FF3A80F0CD
:104870009B80A74240F2988002386444E41B9FB2B8
:10488000B4FBF9F309FB134447EA044403FB0EFEAF
:10489000A64509D91CEB040403F1FF3780F08280A0
:1048A000A6457FD9023B644443EA0040A4EB0E04D2
:1048B000A0FB02E7BC427346B94663D360D05DB14A
:1048C000B8EB030264EB090404FA06F622FA01F3DA
:1048D0001E43CC40C5E9006400214CE7620848084B
:1048E00042EAC1710B0C43EA00438AB242EA034236
:1048F000B3FBF6F1E407B4463746B6461F23B0FBD8
:10490000F6F0D21B41EA004161E7614614E7104628
:1049100028E7C3F1200120FA01F29E4027FA01F1B5
:104920009F403A434FEA164E1FFA86FCB1FBFEF752
:104930000EFB1710110C41EA004107FB0CF88845EB
:1049400004FA03F43AD9711807F1FF3001D288450F
:104950001FD8A1EB0801B1FBFEF808FB0CF70EFB1A
:10496000181192B242EA0142BA422FD2B21808F1AB
:10497000FF31C6D2BA42C4D2A8F102013244C0E724
:10498000F0459CD2BEEB020367EB0C070138B94639
:1049900095E7A6EB08084144B81EB1FBFEF808FBFA
:1049A0000CF7DCE73B467FE7504667E70846FBE647
:1049B0003444023832E7023F32441BE7A1EB0801DE
:1049C0003846B1FBFEF808FB0CF7C8E7414698E70C
:1049D000F8B500BFF8BC08BC9E467047F8B500BFEC
:0849E000F8BC08BC9E467047BC
:1049E80050697463683A20252E32662C20526F6C09
:1049F8006C3A20252E32662C205069746368205248
:104A08006174653A20252E32662C20526F6C6C201A
:104A1800526174653A20252E32660A00A08601008C
:104A2800400D0300801A060000350C0040420F00BC
:104A380080841E0000093D0000127A000024F40062
:104A480000366E010048E801006CDC02000000003E
:104A5800010203040000000000000000010203043A
:104A680006070809232D302B2000686C4C0065666A
:104A780067454647003031323334353637383941A7
:104A880042434445460030313233343536373839BD
:104A9800616263646566000000000080DB0F4940C6
:104AA800DB0F49C0DB0F49BFE4CB1640E4CB16C08F
:104AB8006937AC3168212233B40F14336821A2332B
:104AC8003863ED3EDA0F493F5E987B3FDA0FC93F06
:084AD800B8B6FF7F01000000E9
:084AE000F508000800000000C9
:084AE800D108000800000000E5
:104AF0000AD7233C010000001000000000093D001F
:104B00000000000003000000100200202000002030
:104B1000000000001002002078020020E0020020C7
:104B20000000000000000000000000000000000085
:104B30000000000000000000000000000000000075
:104B40000000000000000000000000000000000065
:104B50000000000000000000000000000000000055
:04000005080034E5D6
:00000001FF
